{
    "_format": "hh-sol-artifact-1",
    "contractName": "TowerClimb",
    "sourceName": "contracts/TowerClimb.sol",
    "abi": [
        {
            "inputs": [],
            "stateMutability": "nonpayable",
            "type": "constructor"
        },
        {
            "inputs": [
                {
                    "internalType": "address",
                    "name": "owner",
                    "type": "address"
                }
            ],
            "name": "OwnableInvalidOwner",
            "type": "error"
        },
        {
            "inputs": [
                {
                    "internalType": "address",
                    "name": "account",
                    "type": "address"
                }
            ],
            "name": "OwnableUnauthorizedAccount",
            "type": "error"
        },
        {
            "inputs": [],
            "name": "ReentrancyGuardReentrantCall",
            "type": "error"
        },
        {
            "anonymous": false,
            "inputs": [
                {
                    "indexed": false,
                    "internalType": "address[]",
                    "name": "winners",
                    "type": "address[]"
                }
            ],
            "name": "GameEnded",
            "type": "event"
        },
        {
            "anonymous": false,
            "inputs": [
                {
                    "indexed": false,
                    "internalType": "address[]",
                    "name": "players",
                    "type": "address[]"
                }
            ],
            "name": "GameInitialized",
            "type": "event"
        },
        {
            "anonymous": false,
            "inputs": [],
            "name": "GameReset",
            "type": "event"
        },
        {
            "anonymous": false,
            "inputs": [],
            "name": "GameStarted",
            "type": "event"
        },
        {
            "anonymous": false,
            "inputs": [
                {
                    "indexed": true,
                    "internalType": "address",
                    "name": "player",
                    "type": "address"
                },
                {
                    "indexed": false,
                    "internalType": "uint8",
                    "name": "move",
                    "type": "uint8"
                }
            ],
            "name": "MoveSubmitted",
            "type": "event"
        },
        {
            "anonymous": false,
            "inputs": [
                {
                    "indexed": true,
                    "internalType": "address",
                    "name": "previousOwner",
                    "type": "address"
                },
                {
                    "indexed": true,
                    "internalType": "address",
                    "name": "newOwner",
                    "type": "address"
                }
            ],
            "name": "OwnershipTransferred",
            "type": "event"
        },
        {
            "anonymous": false,
            "inputs": [
                {
                    "indexed": true,
                    "internalType": "address",
                    "name": "player",
                    "type": "address"
                }
            ],
            "name": "PlayerEliminated",
            "type": "event"
        },
        {
            "anonymous": false,
            "inputs": [
                {
                    "indexed": true,
                    "internalType": "address",
                    "name": "player",
                    "type": "address"
                }
            ],
            "name": "PlayerWon",
            "type": "event"
        },
        {
            "anonymous": false,
            "inputs": [
                {
                    "indexed": false,
                    "internalType": "uint256",
                    "name": "roundNumber",
                    "type": "uint256"
                }
            ],
            "name": "RoundStarted",
            "type": "event"
        },
        {
            "inputs": [],
            "name": "capPerFloor",
            "outputs": [
                {
                    "internalType": "uint256",
                    "name": "",
                    "type": "uint256"
                }
            ],
            "stateMutability": "view",
            "type": "function"
        },
        {
            "inputs": [
                {
                    "internalType": "address",
                    "name": "",
                    "type": "address"
                }
            ],
            "name": "currentLevel",
            "outputs": [
                {
                    "internalType": "uint8",
                    "name": "",
                    "type": "uint8"
                }
            ],
            "stateMutability": "view",
            "type": "function"
        },
        {
            "inputs": [],
            "name": "currentRound",
            "outputs": [
                {
                    "internalType": "uint256",
                    "name": "",
                    "type": "uint256"
                }
            ],
            "stateMutability": "view",
            "type": "function"
        },
        {
            "inputs": [],
            "name": "endRound",
            "outputs": [],
            "stateMutability": "nonpayable",
            "type": "function"
        },
        {
            "inputs": [],
            "name": "gameStart",
            "outputs": [],
            "stateMutability": "nonpayable",
            "type": "function"
        },
        {
            "inputs": [],
            "name": "gameState",
            "outputs": [
                {
                    "internalType": "enum TowerClimb.GameState",
                    "name": "",
                    "type": "uint8"
                }
            ],
            "stateMutability": "view",
            "type": "function"
        },
        {
            "inputs": [],
            "name": "getActivePlayers",
            "outputs": [
                {
                    "internalType": "address[]",
                    "name": "",
                    "type": "address[]"
                }
            ],
            "stateMutability": "view",
            "type": "function"
        },
        {
            "inputs": [
                {
                    "internalType": "address",
                    "name": "player",
                    "type": "address"
                }
            ],
            "name": "getCurrentLevel",
            "outputs": [
                {
                    "internalType": "uint8",
                    "name": "",
                    "type": "uint8"
                }
            ],
            "stateMutability": "view",
            "type": "function"
        },
        {
            "inputs": [],
            "name": "getWinners",
            "outputs": [
                {
                    "internalType": "address[]",
                    "name": "",
                    "type": "address[]"
                }
            ],
            "stateMutability": "view",
            "type": "function"
        },
        {
            "inputs": [
                {
                    "internalType": "address[]",
                    "name": "_players",
                    "type": "address[]"
                }
            ],
            "name": "initializeGame",
            "outputs": [],
            "stateMutability": "nonpayable",
            "type": "function"
        },
        {
            "inputs": [
                {
                    "internalType": "address",
                    "name": "",
                    "type": "address"
                }
            ],
            "name": "isActive",
            "outputs": [
                {
                    "internalType": "bool",
                    "name": "",
                    "type": "bool"
                }
            ],
            "stateMutability": "view",
            "type": "function"
        },
        {
            "inputs": [],
            "name": "owner",
            "outputs": [
                {
                    "internalType": "address",
                    "name": "",
                    "type": "address"
                }
            ],
            "stateMutability": "view",
            "type": "function"
        },
        {
            "inputs": [
                {
                    "internalType": "uint256",
                    "name": "",
                    "type": "uint256"
                }
            ],
            "name": "players",
            "outputs": [
                {
                    "internalType": "address",
                    "name": "",
                    "type": "address"
                }
            ],
            "stateMutability": "view",
            "type": "function"
        },
        {
            "inputs": [],
            "name": "renounceOwnership",
            "outputs": [],
            "stateMutability": "nonpayable",
            "type": "function"
        },
        {
            "inputs": [],
            "name": "resetGame",
            "outputs": [],
            "stateMutability": "nonpayable",
            "type": "function"
        },
        {
            "inputs": [],
            "name": "startRound",
            "outputs": [],
            "stateMutability": "nonpayable",
            "type": "function"
        },
        {
            "inputs": [],
            "name": "submissionDeadline",
            "outputs": [
                {
                    "internalType": "uint256",
                    "name": "",
                    "type": "uint256"
                }
            ],
            "stateMutability": "view",
            "type": "function"
        },
        {
            "inputs": [
                {
                    "internalType": "uint8",
                    "name": "move",
                    "type": "uint8"
                }
            ],
            "name": "submitMove",
            "outputs": [],
            "stateMutability": "nonpayable",
            "type": "function"
        },
        {
            "inputs": [
                {
                    "internalType": "address",
                    "name": "",
                    "type": "address"
                }
            ],
            "name": "submittedMove",
            "outputs": [
                {
                    "internalType": "uint8",
                    "name": "",
                    "type": "uint8"
                }
            ],
            "stateMutability": "view",
            "type": "function"
        },
        {
            "inputs": [],
            "name": "targetWinners",
            "outputs": [
                {
                    "internalType": "uint256",
                    "name": "",
                    "type": "uint256"
                }
            ],
            "stateMutability": "view",
            "type": "function"
        },
        {
            "inputs": [
                {
                    "internalType": "address",
                    "name": "newOwner",
                    "type": "address"
                }
            ],
            "name": "transferOwnership",
            "outputs": [],
            "stateMutability": "nonpayable",
            "type": "function"
        },
        {
            "inputs": [
                {
                    "internalType": "uint256",
                    "name": "",
                    "type": "uint256"
                }
            ],
            "name": "winners",
            "outputs": [
                {
                    "internalType": "address",
                    "name": "",
                    "type": "address"
                }
            ],
            "stateMutability": "view",
            "type": "function"
        }
    ],
    "bytecode": "0x6080604052348015600f57600080fd5b503380603557604051631e4fbdf760e01b81526000600482015260240160405180910390fd5b603c81604f565b50600180556007805460ff19169055609f565b600080546001600160a01b038381166001600160a01b0319831681178455604051919092169283917f8be0079c531659141344cd1fd0a4f28419497f9722a3daafe3b4186f6b6457e09190a35050565b6116ea806100ae6000396000f3fe608060405234801561001057600080fd5b50600436106101425760003560e01c80639f8a13d7116100b8578063d90870251161007c578063d9087025146102a4578063df15c37e146102d0578063e1ff3b33146102d8578063f2fde38b146102eb578063f71d96cb146102fe578063f9c551151461031157600080fd5b80639f8a13d714610219578063a2fb11751461024c578063bb4722191461025f578063cce3775314610267578063d1f9c24d1461028a57600080fd5b8063626b6efa1161010a578063626b6efa14610193578063691a037a146101a6578063715018a6146101db578063749aa2d9146101e35780638a19c8bc146101eb5780638da5cb5b146101f457600080fd5b80631dda5c3c146101475780633218b99d146101635780633c4f5a661461016d5780634315214f1461018257806355e3f0861461018b575b600080fd5b610150600a5481565b6040519081526020015b60405180910390f35b61016b61031a565b005b6101756103b5565b60405161015a91906113d1565b61015060095481565b61016b610533565b61016b6101a136600461144f565b6105fa565b6101c96101b436600461151f565b60036020526000908152604090205460ff1681565b60405160ff909116815260200161015a565b61016b610894565b61016b6108a8565b61015060065481565b6000546001600160a01b03165b6040516001600160a01b03909116815260200161015a565b61023c61022736600461151f565b60046020526000908152604090205460ff1681565b604051901515815260200161015a565b61020161025a366004611541565b610923565b61016b61094d565b6101c961027536600461151f565b60056020526000908152604090205460ff1681565b6007546102979060ff1681565b60405161015a9190611570565b6101c96102b236600461151f565b6001600160a01b031660009081526003602052604090205460ff1690565b610175610a2e565b61016b6102e6366004611598565b610aeb565b61016b6102f936600461151f565b610c52565b61020161030c366004611541565b610c8d565b61015060085481565b610322610c9d565b600160075460ff16600581111561033b5761033b61155a565b1461037d5760405162461bcd60e51b815260206004820152600d60248201526c496e76616c696420737461746560981b60448201526064015b60405180910390fd5b6007805460ff191660021790556040517f762f260439bb4be3ef6e4dc2786e2e7bd187d3d80b79057d7a424fe98563e33590600090a1565b60606000805b60025481101561041f5760046000600283815481106103dc576103dc6115bb565b60009182526020808320909101546001600160a01b0316835282019290925260400190205460ff16156104175781610413816115e7565b9250505b6001016103bb565b5060008167ffffffffffffffff81111561043b5761043b61141d565b604051908082528060200260200182016040528015610464578160200160208202803683370190505b5090506000805b60025481101561052a57600460006002838154811061048c5761048c6115bb565b60009182526020808320909101546001600160a01b0316835282019290925260400190205460ff161561052257600281815481106104cc576104cc6115bb565b9060005260206000200160009054906101000a90046001600160a01b03168383815181106104fc576104fc6115bb565b6001600160a01b03909216602092830291909101909101528161051e816115e7565b9250505b60010161046b565b50909392505050565b61053b610c9d565b600260075460ff1660058111156105545761055461155a565b146105915760405162461bcd60e51b815260206004820152600d60248201526c496e76616c696420737461746560981b6044820152606401610374565b600680549060006105a1836115e7565b909155506105b29050426078611600565b6008556007805460ff191660031790556006546040519081527f33a701182892fd888ed152ca2ac23771a32e814469b7cd255965471e1af3a6599060200160405180910390a1565b610602610c9d565b600060075460ff16600581111561061b5761061b61155a565b1461065e5760405162461bcd60e51b8152602060048201526013602482015272105b1c9958591e481a5b9a5d1a585b1a5e9959606a1b6044820152606401610374565b600a81511015801561067b575060028151610679919061162f565b155b6106c75760405162461bcd60e51b815260206004820152601960248201527f496e76616c6964206e756d626572206f6620706c6179657273000000000000006044820152606401610374565b80516106d4600282611643565b600a5560026106e4600583611643565b6106ee9190611643565b60095560005b81811015610836576000838281518110610710576107106115bb565b6020026020010151905061072c6000546001600160a01b031690565b6001600160a01b0316816001600160a01b03160361078c5760405162461bcd60e51b815260206004820152601860248201527f4f776e65722063616e6e6f74206265206120706c6179657200000000000000006044820152606401610374565b6001600160a01b03811660009081526004602052604090205460ff16156107e85760405162461bcd60e51b815260206004820152601060248201526f223ab83634b1b0ba3290383630bcb2b960811b6044820152606401610374565b6001600160a01b03166000908152600460209081526040808320805460ff1990811660019081179092556003845282852080548216905560059093529220805490911660ff179055016106f4565b50815161084a90600290602085019061131a565b506007805460ff191660011790556040517f6eacfb5c564550062d63db1e6b776e148fdab72b3bfc3cecf9f9f382b875472b906108889084906113d1565b60405180910390a15050565b61089c610c9d565b6108a66000610cca565b565b6108b0610c9d565b600360075460ff1660058111156108c9576108c961155a565b1480156108d857506008544210155b61091b5760405162461bcd60e51b815260206004820152601460248201527310d85b9b9bdd08195b99081c9bdd5b99081e595d60621b6044820152606401610374565b6108a6610d1a565b600b818154811061093357600080fd5b6000918252602090912001546001600160a01b0316905081565b610955610c9d565b60005b6002548110156109cc57600060028281548110610977576109776115bb565b60009182526020808320909101546001600160a01b03168252600381526040808320805460ff19908116909155600483528184208054821690556005909252909120805490911660ff17905550600101610958565b506109d96002600061137f565b6109e5600b600061137f565b600060068190556007805460ff1916905560088190556009819055600a8190556040517fc6976b6410888b44c765590c8368eb4a60e0431d4ad683c8a53ea85a8479f22e9190a1565b6060600560075460ff166005811115610a4957610a4961155a565b14610a8b5760405162461bcd60e51b815260206004820152601260248201527111d85b59481b9bdd08195b991959081e595d60721b6044820152606401610374565b600b805480602002602001604051908101604052809291908181526020018280548015610ae157602002820191906000526020600020905b81546001600160a01b03168152600190910190602001808311610ac3575b5050505050905090565b610af36112f0565b600360075460ff166005811115610b0c57610b0c61155a565b148015610b1a575060085442105b610b5a5760405162461bcd60e51b815260206004820152601160248201527043616e6e6f74207375626d6974206e6f7760781b6044820152606401610374565b3360009081526004602052604090205460ff16610bb05760405162461bcd60e51b81526020600482015260146024820152732737ba1030b71030b1ba34bb3290383630bcb2b960611b6044820152606401610374565b60058160ff161115610bf35760405162461bcd60e51b815260206004820152600c60248201526b496e76616c6964206d6f766560a01b6044820152606401610374565b33600081815260056020908152604091829020805460ff191660ff861690811790915591519182527f188e951d9711134151ca8bed640c2d451f586e1e8e1eb16f90539d7e33ce9b7b910160405180910390a2610c4f60018055565b50565b610c5a610c9d565b6001600160a01b038116610c8457604051631e4fbdf760e01b815260006004820152602401610374565b610c4f81610cca565b6002818154811061093357600080fd5b6000546001600160a01b031633146108a65760405163118cdaa760e01b8152336004820152602401610374565b600080546001600160a01b038381166001600160a01b0319831681178455604051919092169283917f8be0079c531659141344cd1fd0a4f28419497f9722a3daafe3b4186f6b6457e09190a35050565b6007805460ff1916600417905560005b600254811015610e6e57600060028281548110610d4957610d496115bb565b60009182526020808320909101546001600160a01b0316808352600490915260409091205490915060ff1615610e65576001600160a01b03811660009081526005602052604081205460ff9081169003610da4576000610dc1565b6001600160a01b03821660009081526005602052604090205460ff165b6001600160a01b03831660009081526003602052604081205491925090610dec90839060ff16611657565b905060328160ff161115610dfe575060325b6001600160a01b0383166000908152600360205260409020805460ff191660ff8316908117909155603203610e62576040516001600160a01b038416907f970f935ee01502df35da11db45c29bdd97d8f41d5a0640c1dc3bd96c67f9798790600090a25b50505b50600101610d2a565b50610e7761139d565b6000805b600254811015610f5257600060028281548110610e9a57610e9a6115bb565b60009182526020808320909101546001600160a01b0316808352600490915260409091205490915060ff1615610f49576001600160a01b03811660009081526003602052604090205460ff166032819003610f015783610ef9816115e7565b945050610f47565b60018160ff1610158015610f19575060318160ff1611155b15610f4757848160ff1660328110610f3357610f336115bb565b60200201805190610f43826115e7565b9052505b505b50600101610e7b565b5060015b6031811161105a57600954838260328110610f7357610f736115bb565b602002015111156110485760005b60025481101561104657600060028281548110610fa057610fa06115bb565b60009182526020808320909101546001600160a01b0316808352600390915260409091205490915060ff1683148015610ff157506001600160a01b03811660009081526004602052604090205460ff165b1561103d576001600160a01b038116600081815260046020526040808220805460ff19169055517f9ab74d043ba19fd15c3afcaf30decddeff525822b002d45e80c80ac800d41a299190a25b50600101610f81565b505b80611052816115e7565b915050610f56565b506000805b6002548110156110c3576004600060028381548110611080576110806115bb565b60009182526020808320909101546001600160a01b0316835282019290925260400190205460ff16156110bb57816110b7816115e7565b9250505b60010161105f565b50600a5482106111c55760005b6002548110156111795760036000600283815481106110f1576110f16115bb565b60009182526020808320909101546001600160a01b0316835282019290925260400190205460ff1660320361117157600b60028281548110611135576111356115bb565b60009182526020808320909101548354600181018555938352912090910180546001600160a01b0319166001600160a01b039092169190911790555b6001016110d0565b506007805460ff191660051790556040517f79316fa24603d03bcfa9afb308d47aaa8a9b3448543623891e91aca882fb5c75906111b890600b90611670565b60405180910390a1505050565b600a5481116112785760005b6002548110156111795760046000600283815481106111f2576111f26115bb565b60009182526020808320909101546001600160a01b0316835282019290925260400190205460ff161561127057600b60028281548110611234576112346115bb565b60009182526020808320909101548354600181018555938352912090910180546001600160a01b0319166001600160a01b039092169190911790555b6001016111d1565b60005b6002548110156112dd5760ff600560006002848154811061129e5761129e6115bb565b6000918252602080832091909101546001600160a01b031683528201929092526040019020805460ff191660ff9290921691909117905560010161127b565b50506007805460ff191660021790555050565b60026001540361131357604051633ee5aeb560e01b815260040160405180910390fd5b6002600155565b82805482825590600052602060002090810192821561136f579160200282015b8281111561136f57825182546001600160a01b0319166001600160a01b0390911617825560209092019160019091019061133a565b5061137b9291506113bc565b5090565b5080546000825590600052602060002090810190610c4f91906113bc565b6040518061064001604052806032906020820280368337509192915050565b5b8082111561137b57600081556001016113bd565b602080825282518282018190526000918401906040840190835b818110156114125783516001600160a01b03168352602093840193909201916001016113eb565b509095945050505050565b634e487b7160e01b600052604160045260246000fd5b80356001600160a01b038116811461144a57600080fd5b919050565b60006020828403121561146157600080fd5b813567ffffffffffffffff81111561147857600080fd5b8201601f8101841361148957600080fd5b803567ffffffffffffffff8111156114a3576114a361141d565b8060051b604051601f19603f830116810181811067ffffffffffffffff821117156114d0576114d061141d565b6040529182526020818401810192908101878411156114ee57600080fd5b6020850194505b838510156115145761150685611433565b8152602094850194016114f5565b509695505050505050565b60006020828403121561153157600080fd5b61153a82611433565b9392505050565b60006020828403121561155357600080fd5b5035919050565b634e487b7160e01b600052602160045260246000fd5b602081016006831061159257634e487b7160e01b600052602160045260246000fd5b91905290565b6000602082840312156115aa57600080fd5b813560ff8116811461153a57600080fd5b634e487b7160e01b600052603260045260246000fd5b634e487b7160e01b600052601160045260246000fd5b6000600182016115f9576115f96115d1565b5060010190565b80820180821115611613576116136115d1565b92915050565b634e487b7160e01b600052601260045260246000fd5b60008261163e5761163e611619565b500690565b60008261165257611652611619565b500490565b60ff8181168382160190811115611613576116136115d1565b602080825282548282018190526000848152918220906040840190835b818110156114125783546001600160a01b031683526001938401936020909301920161168d56fea26469706673582212203dbc8ed654e64c4c78a8a199dd3439e06219257796e9048e413d577fefbfff5c64736f6c634300081c0033",
    "linkReferences": {},
    "deployedLinkReferences": {}
}